:10085B004C43534F4654202843292032303131002A
:05086B00000000000088
:0308A00001200034
:0D000300758901E4F58CF58AD2AFD28A220E
:10083000EF1FAA0670011E4A600BE4FDEDC3947B16
:0508400050EE0D80F7F1
:010845002290
:04089B007F32DFFECB
:01089F002236
:10051800E4F58CF58AD28C7F08B2900000000000C8
:10052800000000DFF4D2907F017E00120830D2AACA
:100538007F327E00120830E52064017061E521FEFB
:100548007C00E42524FDEC3EFCE41201C18F0E8EF4
:100558000D8D0C8C0BE4FBFA797A784412011FE4B8
:10056800FBFAF9784012011F8F0E8E0D8D0C8C0B43
:10057800E4FBFA79AC78431200168F0E8E0D8D0CC1
:100588008C0BE4FBFA7920784112011F8F0E8E0D37
:0E0598008D0C8C0B1201FA8E228F23E4F520BD
:0105A6002232
:03001300020633AF
:10063300C0E0C0F0C083C082C0D075D000C000C08D
:0D06430001C002C003C004C005C006C0070E
:10065000C28CC2ABAF8CEFFEAD8A7C00E42DFFEC08
:100660003EFED3EF9400EE94004019E4FD7B607AE7
:10067000EAF9F8D31203B5400B858C21858A2475DD
:0A068000200180067521007524009A
:10068A00D007D006D005D004D003D002D001D000C4
:0B069A00D0D0D082D083D0F0D0E0326E
:10073800E4F509F50A1200031206A57B4D7D0A7F30
:10074800011207DB750E08750F5BE4FBFDFF12074E
:100758007B120518750864750F04751002AB23AA7F
:10076800227D097F011204201508E508D394005062
:03077800E680DE3A
:080420008F0B8D0C8A0D8B0E71
:10042800E4F511F51278137C00FD7BFF7A08796BEF
:10043800FE7F0512034BE50FD394054003750F05A6
:10044800C3E50D64809480500E751201C3E4950EC7
:10045800F50EE4950DF50DAE0DAF0E7C277D10124F
:1004680003718F17AE0DAF0E7C277D101203718CB0
:100478000D8D0EAE0DAF0E7C037DE81203718F1645
:10048800AE0DAF0E7C037DE81203718C0D8D0EAEA0
:100498000DAF0E7C007D641203718F15AE0DAF0E8B
:1004A8007C007D641203718C0D8D0EAE0DAF0E7C39
:1004B800007D0A1203718F14AE0DAF0E7C007D0A09
:1004C8001203718D13E4F511E511C3950F5030E552
:1004D80011B51013E510600FC3E50C9511FD7B2EC7
:1004E800AF0B1207DB150CC3E50C9511FD74132532
:1004F80011F8E62430FBAF0B1207DB051180C9E5C4
:0F05080012B4010BE50C14FD7B2DAF0B1207DBBA
:0105170022C1
:0406F4008F1A8D1BB1
:1006F800E4F51CEB75F06484F51DEB75F06484ABD0
:10070800F0EB75F00A84F51EEB75F00A8485F01F8E
:10071800E4F51CE51B251CFD741D251CF8E624309A
:0F072800FBAF1A1207DB051CE51CC3940340E46A
:01073700229F
:1006A500E4F5A0FDFC7F381207FF1207B6E4FDFC58
:1006B5007F381207FF1207B6E4FDFC7F381207FFEB
:1006C5001207B67F381207FB7F081207FB7D017CF6
:1006D500007F011207FF7D017C007F061207FF7D69
:0F06E500017C007F0C1207FF7F647E000207BAC2
:10081600AE0553070153060FEF6003430640430638
:0A08260080AF067D017C000207FF91
:06077B008F0B8D0C8B0DAD
:10078100E4F510530B01530C0FE50F2510F582E42E
:10079100350EF583E493FB601BE50CD3940F5014E5
:1007A100AD0CAF0B1207DB0510050CAF0D7E00126F
:0407B10007BA80D52E
:0107B5002221
:0B089000EF1FAC0670011E4C70F6223A
:0407B6007F057E003D
:1007BA00E4FDFCC3ED9FEC9E50167BFA7A00EB1B1E
:1007CA008A8370011A458370F50DBD00010C80E320
:0107DA0022FC
:100870008F191208468519A0D282C281C280C28017
:03088000D2802201
:0407FB007D017C0000
:1007FF008F19ED4C60031208468519A0C282C28181
:07080F00C280C280D28022EA
:0D088300D282D281C280C280D280AFA0227A
:1008460075A0FFC282D281C280C280D280E5A0207C
:05085600E7FBAFA0224A
:1007DB008B18AE0553070153060FEF60034306401A
:1007EB00430680AF06E4FDFC1207FFAF180208704A
:10001600EC4D6011E8497017ED33EC3304600DE4E4
:10002600FCFFFEFD22E933E8330470F80202661293
:10003600023158046009E4CC248150062850090294
:10004600027028400302026DC0E0EB4A7044B9809A
:1000560006D0E0FB02025CEF4E701CBD8008EBFF91
:10006600EAFEE9FD80EBE98DF0A4FEE5F00200FF73
:10007600E9CDF9EAFEEBFFEF89F0A4FCE5F0CE89C5
:10008600F0A42EFFE435F0CD89F0A42DFEE435F082
:100096008067EF4E7005BD80D780C3EF8BF0A4ACB0
:1000A600F0EE8BF0A42CFCE435F0F8EF8AF0A42CEB
:1000B600E5F038FCE433CB8DF0A42CFCE5F03BF8FE
:1000C600EE8AF0A42CFCE5F038F8E433CF89F0A4EE
:1000D6002CFCE5F038CF3400CE89F0A42FFFE5F0F4
:1000E6003EFEE433C98DF0A42EFEE5F039CD8AF04C
:1000F600A42FFFE5F03EFEE43DFD33D0E0FB5007C4
:100106000BBB000F020270EC2CFCEF33FFEE33FE4C
:06011600ED33FD0202487A
:10011C00020270EC5D046005E8590470030202668B
:10012C00120231580460F6EC4860F2EC7004FDFEEB
:10013C00FF22C860DB2481C85009C39860025006B6
:10014C0002026D9850CAF582E9294B4A7005AB82C0
:10015C0002025C75F0007C1A7880C3EF9BEE9AED7E
:10016C0099400DC3EF9BFFEE9AFEED99FDE842F02E
:10017C00DC23ACF0D0E0FFD0E0FED0E0FDAB822081
:10018C00E7101BEB60BAEC2CFCEF33FFEE33FEED0B
:10019C0033FD020248E803F830E705C0F075F000C3
:1001AC00EF2FFFEE33FEED33FD40B830E7C280AAEF
:1001BC0075F020800E75F010800575F0087D007EBE
:1001CC00007F003392D530D5031203A7EC334010D7
:1001DC00EF33FFEE33FEED33FDEC33FCD5F0ED22C7
:0E01EC00E5F0247EA2D513CC92E7CDCEFF2203
:1001FA00EDD2E7CD33EC3392D524814006E4FFFEFD
:10020A00FDFC22FCE4CFCECDCC24E0501174FF805B
:10021A00EDC3CC13CCCD13CDCE13CECF13CF0470F8
:07022A00F030D5DE0203A74E
:10023100E9D2E7C933E833F892D5EDD2E7CD33EC13
:0702410033FC5002B2D5228C
:10024800EC30E7100FBF000C0EBE00080DBD000417
:100258000BEB6014A2D5EB13FCED92E7FD2274FFC3
:10026800FCFDFEFF22E480F8A2D574FF13FC7D801C
:03027800E480EF30
:030000000205A74F
:0C05A700787FE4F6D8FD7581240205EE93
:10027B00E709F608DFFA8046E709F208DFFA803E65
:10028B0088828C83E709F0A3DFFA8032E309F60852
:10029B00DFFA8078E309F208DFFA807088828C83BA
:1002AB00E309F0A3DFFA806489828A83E0A3F6086E
:1002BB00DFFA805889828A83E0A3F208DFFA804C48
:1002CB0080D280FA80C680D4806980F2803380101F
:1002DB0080A680EA809A80A880DA80E280CA803388
:1002EB0089828A83ECFAE493A3C8C582C8CCC58300
:1002FB00CCF0A3C8C582C8CCC583CCDFE9DEE780D0
:10030B000D89828A83E493A3F608DFF9ECFAA9F04E
:10031B00EDFB2289828A83ECFAE0A3C8C582C8CCA4
:10032B00C583CCF0A3C8C582C8CCC583CCDFEADEBD
:10033B00E880DB89828A83E493A3F208DFF980CC1F
:10034B0088F0EF60010E4E60C388F0ED2402B40418
:10035B000050B9F582EB2402B4040050AF232345BF
:06036B0082239002CB7317
:10037100C2D5EC30E709B2D5E4C39DFDE49CFCEEA7
:1003810030E715B2D5E4C39FFFE49EFE1203CBC351
:10039100E49DFDE49CFC80031203CB30D507C3E44C
:0603A1009FFFE49EFE2216
:0E03A700C3E49FFFE49EFEE49DFDE49CFC2267
:1003B500EB9FF5F0EA9E42F0E99D42F0EC6480C8BF
:0603C50064809845F0225F
:1005B300020738E493A3F8E493A34003F68001F21F
:1005C30008DFF48029E493A3F85407240CC8C33349
:1005D300C4540F4420C8834004F456800146F6DF18
:1005E300E4800B01020408102040809008A0E47E00
:1005F300019360BCA3FF543F30E509541FFEE4930D
:10060300A360010ECF54C025E060A840B8E493A3D3
:10061300FAE493A3F8E493A3C8C582C8CAC583CAFE
:10062300F0A3C8C582C8CAC583CADFE9DEE780BEB6
:0108A3000054
:1003CB00BC000BBE0029EF8DF084FFADF022E4CC16
:1003DB00F875F008EF2FFFEE33FEEC33FCEE9DECDF
:1003EB00984005FCEE9DFE0FD5F0E9E4CEFD22ED25
:1003FB00F8F5F0EE8420D21CFEADF075F008EF2F6F
:10040B00FFED33FD4007985006D5F0F222C398FD5F
:05041B000FD5F0EA22FC
:00000001FF
